S01D0000436F6E7665727469646F722041435F44432050574D2E73726563DA
S11300000C9434000C947C010C9466010C94510003
S11300100C9451000C9451000C9451000C94510018
S11300200C9451000C9451000C9451000C94510008
S11300300C9451000C94DA010C9451000C9451006E
S11300400C9451000C9451000C942F010C94510009
S11300500C9451000C9492010C9451000C94510096
S11300600C9451000C94510011241FBECFEFD8E022
S1130070DEBFCDBF11E0A0E0B1E0E0E0FDE002C0F2
S113008005900D92A235B107D9F721E0A2E5B1E0C0
S113009001C01D92A337B207E1F70E946E050C94CC
S11300A07E060C940000CF93DF93CDB7DEB769973B
S11300B00FB6F894DEBF0FBECDBF8DE0E7E0F1E0F0
S11300C0DE01119601900D928A95E1F78CE0E4E14E
S11300D0F1E0DE011E9601900D928A95E1F7809180
S11300E0710190917201019709F05EC080916E01D7
S11300F090916F01019781F181E090E090936F01FD
S113010080936E0110926D0110926C01A0E0B0E03A
S1130110E0ECF0E09E012F5F3F4F46EC50E001C061
S1130120DC01808185FFFDCFA20FB31F8C91DA0122
S11301308C9380916C0190916D01019690936D0167
S113014080936C01D9010D900020E9F71197A21B4F
S1130150B30BA817B90720F78091000190E0C0976E
S113016044E6489F9001499F300D1124809101017C
S113017090E0C097AC01440F551F880F991F880F5A
S1130180991F880F991F840F951F280F391F80917D
S1130190030190E0C097820F931F8739910524F4DF
S11301A0909367018093660180917101909172012F
S11301B0892BB1F580916E0190916F01029781F1C5
S11301C082E090E090936F0180936E0110926D0134
S11301D010926C01A0E0B0E0E0ECF0E09E01225F40
S11301E03F4F46EC50E001C0DC01808185FFFDCF2C
S11301F0A20FB31F8C91DA018C9380916C019091C2
S11302006D01019690936D0180936C01D9010D905D
S11302100020E9F71197A21BB30BA817B90720F721
S113022069960FB6F894DEBF0FBECDBFDF91CF91B4
S113023008954F9909C02FEF80E792E02150804044
S11302409040E1F700C0000089B18095881F88279D
S1130250881F089589B186FB882780F908951F9225
S11302600F920FB60F9211242F938F939F93EF93B6
S1130270FF932091C600209370012F3439F481E05C
S113028090E0909365018093640107C0243229F4BF
S113029010925701109256010FC0203368F08091DC
S11302A0560190915701FC01E050FF4F20830196C5
S11302B09093570180935601FF91EF919F918F91F5
S11302C02F910F900FBE0F901F9018951F920F92B1
S11302D00FB60F9211248F939F9328988FE891E083
S11302E00197F1F700C00000299A9F918F910F9018
S11302F00FBE0F901F9018951F920F920FB60F927A
S113030011248F939F9329988FE891E00197F1F737
S113031000C00000289A9F918F910F900FBE0F90FC
S11303201F9018951F920F920FB60F9211248F935E
S11303309F93AF93BF938091540190915501892B62
S1130340D1F48091780090917900A0E0B0E080939E
S1130350600190936101A0936201B0936301809165
S113036005018F5F80937C0081E090E090935501BC
S11303708093540116C08091780090917900A0E098
S1130380B0E080935A0190935B01A0935C01B09319
S11303905D018091050180937C00109255011092BB
S11303A05401BF91AF919F918F910F900FBE0F9009
S11303B01F9018951F920F920FB60F9211242F932E
S11303C03F934F935F936F937F938F939F93AF93D9
S11303D0BF93EF93FF938091520190915301019643
S11303E09093530180935201809171019091720115
S11303F0892BB1F420916001309161014091620137
S113040050916301A4E6B0E00E942E062FEF33E082
S113041040E050E00E940F0630936701209366018C
S1130420209166013091670147EC429FC001439FD0
S1130430900D112464E670E00E94FB0568BDFF91F5
S1130440EF91BF91AF919F918F917F916F915F9148
S11304504F913F912F910F900FBE0F901F901895C1
S11304608EBD0DB407FEFDCF089515B885E08A95BD
S1130470F1F700008AE090E090935F0180935E01C1
S11304800E94300285E08A95F1F7000010925F0126
S113049010925E0180E090E00E94300284E085B911
S11304A085E08A95F1F7000015B885E08A95F1F7A3
S11304B0000089E090E090935F0180935E010E94C8
S11304C0300285E08A95F1F700008FEF90E0909379
S11304D05F0180935E010E94300284E085B985E06B
S11304E08A95F1F7000015B885E08A95F1F70000C8
S11304F08BE090E090935F0180935E010E94300254
S113050085E08A95F1F7000082E090E090935F0126
S113051080935E010E94300284E085B985E08A956B
S1130520F1F7000015B885E08A95F1F700008CE03A
S113053090E090935F0180935E010E94300285E019
S11305408A95F1F7000081E090E090935F01809339
S11305505E010E94300284E085B985E08A95F1F756
S1130560000015B885E08A95F1F700008FE090E06F
S113057090935F0180935E010E94300285E08A952A
S1130580F1F7000010925F0110925E0180E090E0AC
S11305900E94300284E085B985E08A95F1F7000075
S11305A015B885E08A95F1F7000081E090E090931A
S11305B05F0180935E010E94300285E08A95F1F725
S11305C000008FEF90E090935F0180935E010E94A2
S11305D0300284E085B985E08A95F1F7000015B80A
S11305E085E08A95F1F7000082E090E090935F0146
S11305F080935E010E94300285E08A95F1F7000045
S11306008FEF90E090935F0180935E010E9430022F
S113061084E085B985E08A95F1F7000015B885E096
S11306208A95F1F7000083E090E090935F01809356
S11306305E010E94300285E08A95F1F700008FEF99
S113064090E090935F0180935E010E94300284E009
S113065085B985E08A95F1F700000895CF92DF927D
S1130660EF92FF920F931F93CF93DF93CDB7DEB733
S113067061970FB6F894DEBF0FBECDBF88E0E0E20D
S1130680F1E0DE01119601900D928A95E1F789E07F
S1130690E8E2F1E0DE01199601900D928A95E1F706
S11306A0809158019091590101969093590180933A
S11306B05801823091052CF0109259011092580182
S11306C038C0019781F510926D0110926C0180E0A1
S11306D090E000EC10E09E012F5F3F4F79010F2E58
S11306E0F6ECCF2ED12CF02DD8012C9125FFFCCF88
S11306F0F701E80FF91F8081F60180830E9435021B
S113070080916C0190916D01019690936D0180939D
S11307106C01F70101900020E9F73197EE19FF0908
S1130720E817F90708F78091580190915901892B2E
S113073051F510926D0110926C01A0E0B0E0E0EC74
S1130740F0E09E01275F3F4F46EC50E001C0DC0122
S1130750808185FFFDCFA20FB31F8C91DA018C93AA
S113076080916C0190916D01019690936D0180933D
S11307706C01D9010D900020E9F71197A21BB30B6E
S1130780A817B90720F761960FB6F894DEBF0FBE1D
S1130790CDBFDF91CF911F910F91FF90EF90DF902C
S11307A0CF900895EF92FF920F931F93CF93DF930F
S11307B0CDB7DEB7A1970FB6F894DEBF0FBECDBF9D
S11307C020915A0130915B0140915C0150915D018F
S11307D0A4E6B0E00E942E062FEF33E040E050E0A4
S11307E00E940F06890180E1E1E3F1E0DE01119648
S11307F001900D928A95E1F781E1E1E4F1E0DE01F7
S1130800519601900D928A95E1F710926D01109224
S11308106C01A0E0B0E0E0ECF0E0BE016F5F7F4F60
S113082086EC90E001C0DA01208125FFFDCFA60F00
S1130830B71F2C91DC012C9340916C0150916D01F8
S11308404F5F5F4F50936D0140936C01DB010D903E
S11308500020E9F71197A61BB70BA417B50718F7E3
S1130860C80164E670E00E94FB05F62EE72E15B879
S1130870B5E0BA95F1F7000023E030E030935F0172
S113088020935E0183E090E00E94300285E08A9527
S1130890F1F70000F0925E01E0925F018F2D9E2D32
S11308A00E94300284E085B9A5E0AA95F1F7000022
S11308B0E0ECF0E0908195FFFDCF80E38F0D809315
S11308C0C600E0ECF0E0808185FFFDCFC80164E65E
S11308D070E00E94FB05182F0DEC809F012D112460
S11308E006950695069515B8B5E0BA95F1F700009A
S11308F022E030E030935F0120935E0182E090E0DB
S11309000E94300285E08A95F1F70000202F30E044
S1130910C90180519F4F90935F0180935E010E94B3
S1130920300284E085B9A5E0AA95F1F70000005DE6
S11309300093C600E0ECF0E0908195FFFDCF8CE2DF
S11309408093C600E0ECF0E0908195FFFDCF8DEC44
S1130950189FF12C1124F694F694F694FF0C8F2D25
S1130960880F880FF80E1F19F12E012F10E015B80B
S1130970B5E0BA95F1F7000081E090E090935F0153
S113098080935E010E94300285E08A95F1F70000B1
S113099010935F0100935E01C8010E94300284E05D
S11309A085B9A5E0AA95F1F7000080E38F0D809347
S11309B0C600E0ECF0E0808185FFFDCF8AE0809303
S11309C0C600E0ECF0E0808185FFFDCF10926D0160
S11309D010926C01A0E0B0E0E0ECF0E09E012F5E2C
S11309E03F4F46EC50E001C0DC01808185FFFDCF24
S11309F0A20FB31F8C91DA018C9380916C019091BA
S1130A006D01019690936D0180936C01D9010D9055
S1130A100020E9F71197A21BB30BA817B90720F719
S1130A20E0ECF0E0808185FFFDCF8091660190913C
S1130A30670164E670E00E94FB05605D6093C60098
S1130A40E0ECF0E0808185FFFDCF8091660190911C
S1130A50670164E670E00E94FB059DEC899F912D7F
S1130A601124969596959695905D9093C600E0EC2A
S1130A70F0E0908195FFFDCF9CE29093C600E0ECFE
S1130A80F0E0908195FFFDCF9DEC899F912D11247D
S1130A90969596959695990F292F220F220F920FCE
S1130AA0891B805D8093C600E0ECF0E0808185FFC7
S1130AB0FDCF8AE08093C600E0ECF0E0808185FF02
S1130AC0FDCFA1960FB6F894DEBF0FBECDBFDF9168
S1130AD0CF911F910F91FF90EF900895559A84B193
S1130AE08F6284B98BB18C6C8BB92A9A21E024BDB6
S1130AF08AE085BD87EC87BD84E688BD83E08DBB35
S1130B008BE0809369001092800084E080938100E0
S1130B1088E996E7909385008093840020936F0082
S1130B201092C00087E690E09093C5008093C400C3
S1130B3086E08093C20098E99093C10090E490937A
S1130B407C009BEE90937A0080937B0081E58CBDC2
S1130B500E943502789410E2C1E0D0E00E942A019C
S1130B60811104C010927201109271010E942A0135
S1130B70813029F4D0937201C093710115C0809122
S1130B80710190917201892B49F40E9419018130FD
S1130B9029F484B5812784BD0E942E0380917101BC
S1130BA090917201019779F48091640190916501AB
S1130BB0019749F484B5812784BD10926501109290
S1130BC064010E942E030E9453008091520190916F
S1130BD05301059731F40E94D203109253011092ED
S1130BE052012FE788E391E0215080409040E1F7E3
S1130BF000C00000B3CF97FB072E16F4009407D073
S1130C0077FD09D00E94390607FC05D03EF4909583
S1130C1081959F4F0895709561957F4F0895052E96
S1130C2097FB1EF400940E94260657FD07D00E94ED
S1130C304D0607FC03D04EF40C94260650954095BF
S1130C40309521953F4F4F4F5F4F08959095809574
S1130C50709561957F4F8F4F9F4F08950E946F0647
S1130C60A59F900DB49F900DA49F800D911D1124FC
S1130C700895AA1BBB1B51E107C0AA1FBB1FA617DF
S1130C80B70710F0A61BB70B881F991F5A95A9F731
S1130C9080959095BC01CD010895A1E21A2EAA1B5E
S1130CA0BB1BFD010DC0AA1FBB1FEE1FFF1FA21718
S1130CB0B307E407F50720F0A21BB30BE40BF50B15
S1130CC0661F771F881F991F1A9469F7609570959E
S1130CD0809590959B01AC01BD01CF010895A29F21
S1130CE0B001B39FC001A39F700D811D1124911DFC
S1130CF0B29F700D811D1124911D0895F894FFCFAA
S1130D00000000000A40004D6F646F2052656D6F53
S1130D10746F0A004D6F646F204C6F63616C0A003E
S1130D2050574D206F6E0A0050574D206F66660A6B
S1130D300054656E73696F6E204D65646964613A31
S1130D400054656E73696F6E2044657365616461F8
S1050D503A0063
S9030000FC
