S01D0000436F6E7665727469646F722041435F44432050574D2E73726563DA
S11300000C9434000C94B8010C94A2010C9451008B
S11300100C9451000C9451000C9451000C94510018
S11300200C9451000C9451000C9451000C94510008
S11300300C9451000C9401020C9451000C94510046
S11300400C9451000C9451000C9464010C945100D4
S11300500C9451000C94CE010C9451000C9451005A
S11300600C9451000C94510011241FBECFEFD8E022
S1130070DEBFCDBF11E0A0E0B1E0E4E5FBE002C0EB
S113008005900D92A034B107D9F721E0A0E4B1E0C6
S113009001C01D92AD36B207E1F70E94FB030C9438
S11300A0A8050C9400000F931F93CF93DF93CDB753
S11300B0DEB769970FB6F894DEBF0FBECDBF8C01D3
S11300C08DE0E8E0F1E0DE01119601900D928A9551
S11300D0E1F78CE0E5E1F1E0DE011E9601900D927E
S11300E08A95E1F762E071E0C8010E949805892BC6
S11300F071F464E071E088E691E00E949805892B30
S113010031F4B8018DE491E00E94A10505C0B80165
S113011082E591E00E94A10564E071E088E691E047
S11301200E949805892B09F072C080914501909135
S11301304601019749F1109261011092600180E03B
S113014090E0E0ECF0E09E012F5F3F4F46EC50E082
S1130150608165FFFDCFD901A80FB91F8C91DA0129
S11301608C9380916001909161010196909361015B
S113017080936001D9010D900020E9F71197A21B2B
S1130180B30BA817B90720F710927A0081E090E02A
S1130190909346018093450164E071E088E691E024
S11301A00E949805892B99F52091520130E0205343
S11301B0310944E6429FC001439F900D11242091D0
S11301C0530130E020533109A901440F551F220F78
S11301D0331F220F331F220F331F240F351F820FAB
S11301E0931F4091550150E040535109840F951FCE
S11301F08739910564F4AA2797FDA095BA2F8093B7
S11302005C0190935D01A0935E01B0935F0166E091
S113021071E088E691E00E949805892BC9F58091E8
S1130220450190914601029751F11092610110929B
S11302306001A0E0B0E0E0ECF0E09E01225F3F4FFF
S113024046EC50E001C0DC01808185FFFDCFA20FA8
S1130250B31F8C91DA018C938091600190916101BC
S113026001969093610180936001D9010D90002063
S1130270E9F71197A21BB30BA817B90720F783E876
S113028080937A0082E090E0909346018093450148
S113029069960FB6F894DEBF0FBECDBFDF91CF9144
S11302A01F910F9108954F9909C02FEF80E792E0B5
S11302B0215080409040E1F700C0000089B1809552
S11302C0881F8827881F08951F920F920FB60F92D8
S11302D011248F938091C6008093670181E08093FD
S11302E040018F910F900FBE0F901F90189584328C
S11302F039F41092400110924201109241011DC044
S113030090ED980F9A3078F4209141013091420198
S1130310F901EE59FE4F80832F5F3F4F3093420126
S1130320209341010AC0109242011092410180932E
S11303306201109263011092640182E691E00E94CE
S1130340530008951F920F920FB60F9211248F93AA
S11303509F9328988FE891E00197F1F700C000007F
S1130360299A9F918F910F900FBE0F901F9018950F
S11303701F920F920FB60F9211248F939F93299877
S11303808FE891E00197F1F700C00000289A9F914F
S11303908F910F900FBE0F901F9018951F920F9280
S11303A00FB60F9211248F939F93EF93FF93809135
S11303B07C0081110DC08091780090917900909318
S11303C04C0180934B01ECE7F0E080818E7F8083C9
S11303D080917C00813061F4809178009091790063
S11303E09093480180934701ECE7F0E0808180839B
S11303F0FF91EF919F918F910F900FBE0F901F90DF
S113040018951F920F920FB60F9211242F933F93BA
S11304104F935F936F937F938F939F93AF93BF9308
S1130420EF93FF9366E071E088E691E00E949805FF
S1130430892BD9F420914B0130914C0144E6429F21
S1130440C001439F900D11246FEF73E00E941505C6
S1130450CB01AA2797FDA095BA2F80935C019093B6
S11304605D01A0935E01B0935F0120915C01309126
S11304705D0140915E0150915F01A7ECB0E00E94E4
S1130480480524E630E040E050E00E94290528BDFC
S1130490FF91EF91BF91AF919F918F917F916F9158
S11304A05F914F913F912F910F900FBE0F901F902E
S11304B018958EBD0DB407FEFDCF089515B885E0DF
S11304C08A95F1F700008AE090E090934A018093C6
S11304D049010E94590285E08A95F1F700001092C3
S11304E04A011092490180E090E00E94590284E0A0
S11304F085B985E08A95F1F7000015B885E08A95FD
S1130500F1F7000089E090E090934A01809349015B
S11305100E94590285E08A95F1F700008FEF90E080
S113052090934A01809349010E94590284E085B95D
S113053085E08A95F1F7000015B885E08A95F1F712
S113054000008BE090E090934A01809349010E945F
S1130550590285E08A95F1F7000082E090E09093DB
S11305604A01809349010E94590284E085B985E0DB
S11305708A95F1F7000015B885E08A95F1F7000037
S11305808CE090E090934A01809349010E945902C3
S113059085E08A95F1F7000081E090E090934A01AC
S11305A0809349010E94590284E085B985E08A95C7
S11305B0F1F7000015B885E08A95F1F700008FE0A7
S11305C090E090934A01809349010E94590285E08A
S11305D08A95F1F7000010924A011092490180E0D7
S11305E090E00E94590284E085B985E08A95F1F78C
S11305F0000015B885E08A95F1F7000081E090E0ED
S113060090934A01809349010E94590285E08A959A
S1130610F1F700008FEF90E090934A018093490135
S11306200E94590284E085B985E08A95F1F70000BB
S113063015B885E08A95F1F7000082E090E0909388
S11306404A01809349010E94590285E08A95F1F795
S113065000008FEF90E090934A01809349010E943B
S1130660590284E085B985E08A95F1F7000015B850
S113067085E08A95F1F7000083E090E090934A01C9
S1130680809349010E94590285E08A95F1F70000A0
S11306908FEF90E090934A01809349010E945902A0
S11306A084E085B985E08A95F1F700000895CF923A
S11306B0DF92EF92FF920F931F93CF93DF93CDB707
S11306C0DEB761970FB6F894DEBF0FBECDBF88E0EA
S11306D0E1E2F1E0DE01119601900D928A95E1F7D5
S11306E089E0E9E2F1E0DE01199601900D928A9524
S11306F0E1F7809143019091440101969093440164
S113070080934301823091052CF0109244011092A1
S1130710430138C0019781F5109261011092600184
S113072080E090E000EC10E09E012F5F3F4F7901E4
S11307300F2EF6ECCF2ED12CF02DD8012C9125FFC5
S1130740FCCFF701E80FF91F8081F60180830E9436
S11307505E02809160019091610101969093610124
S113076080936001F70101900020E9F73197EE19B9
S1130770FF09E817F90708F78091430190914401B4
S1130780892B51F51092610110926001A0E0B0E054
S1130790E0ECF0E09E01275F3F4F46EC50E001C0E3
S11307A0DC01808185FFFDCFA20FB31F8C91DA019C
S11307B08C93809160019091610101969093610105
S11307C080936001D9010D900020E9F71197A21BD5
S11307D0B30BA817B90720F761960FB6F894DEBFDC
S11307E00FBECDBFDF91CF911F910F91FF90EF907E
S11307F0DF90CF90089566E071E088E691E00E9472
S1130800A105559A84B18F6284B98BB18C688BB978
S11308102A9A21E024BD8AE085BD87EC87BD84E661
S113082088BD83E08DBB8BE08093690010928000CB
S113083084E08093810088E996E790938500809313
S1130840840020936F001092C00087E690E090939C
S1130850C5008093C40086E08093C20098E9909319
S1130860C10090E490937C009BEA90937A0080937B
S11308707B0081E58CBD0E945E02789468946624B6
S113088065F80F2EF9E0AF2EB12CF02D6894772483
S113089072F8CC24C394D12CC7E4D0E06894EE243D
S11308A0E1F8F12C03E010E00F2EFEE78F2E912CDF
S11308B0F02D80914001813021F4809167010E94E4
S11308C0770164E071E088E691E00E94A10566E0AA
S11308D071E088E691E00E949805892B49F40E9412
S11308E05301813029F484B5862584BD0E945703C1
S11308F064E071E088E691E00E949805892B99F400
S113090062E071E08DE491E00E949805892B59F42E
S113091084B5862584BD60E071E08DE491E00E9499
S1130920A1050E9457038091430190914401892BB2
S113093009F071C015B825E02A95F1F70000B092CE
S11309404A01A0924901C5010E94590285E08A9595
S1130950F1F7000010924A011092490180E090E002
S11309600E94590275B895E09A95F1F7000015B800
S113097025E02A95F1F70000D0924A01C09249017E
S1130980C6010E94590285E08A95F1F70000D093D0
S11309904A01C0934901CE010E94590275B895E0FD
S11309A09A95F1F7000015B825E02A95F1F70000B3
S11309B0F0924A01E0924901C7010E94590285E080
S11309C08A95F1F70000D0934A01C0934901CE0102
S11309D00E94590275B895E09A95F1F7000015B890
S11309E025E02A95F1F7000010934A01009349018C
S11309F0C8010E94590285E08A95F1F7000090929F
S1130A004A0180924901C4010E94590275B895E0D7
S1130A109A95F1F700002FE788E391E02150804098
S1130A209040E1F700C0000044CF97FB072E16F476
S1130A30009407D077FD09D00E94530507FC05D028
S1130A403EF4909581959F4F0895709561957F4FE1
S1130A500895052E97FB1EF400940E94400557FD4F
S1130A6007D00E94670507FC03D04EF40C944005A0
S1130A7050954095309521953F4F4F4F5F4F0895C6
S1130A8090958095709561957F4F8F4F9F4F0895F6
S1130A900E948905A59F900DB49F900DA49F800D81
S1130AA0911D11240895AA1BBB1B51E107C0AA1F65
S1130AB0BB1FA617B70710F0A61BB70B881F991FFB
S1130AC05A95A9F780959095BC01CD010895A1E2AE
S1130AD01A2EAA1BBB1BFD010DC0AA1FBB1FEE1FB4
S1130AE0FF1FA217B307E407F50720F0A21BB30BFF
S1130AF0E40BF50B661F771F881F991F1A9469F77B
S1130B0060957095809590959B01AC01BD01CF01D6
S1130B100895A29FB001B39FC001A39F700D811DD2
S1130B201124911DB29F700D811D1124911D0895F2
S1130B30FB01DC018D91019080190110D9F3990B0F
S1130B400895FB01DC0101900D920020E1F7089566
S1070B50F894FFCF43
S1130B5445004F0052004C004D6F646F2052656D88
S1130B646F746F0A004D6F646F204C6F63616C0A7D
S1130B740050574D206F6E0A0050574D206F666623
S1130B840A0054656E73696F6E205265616C3A0095
S9030000FC
