S01D0000436F6E7665727469646F722041435F44432050574D2E73726563DA
S11300000C9434000C9483010C946D010C945100F5
S11300100C9451000C9451000C9451000C94510018
S11300200C9451000C9451000C9451000C94510008
S11300300C9451000C94AF010C9451000C94510099
S11300400C9451000C9451000C9434010C94510004
S11300500C9451000C9499010C9451000C9451008F
S11300600C9451000C94510011241FBECFEFD8E022
S1130070DEBFCDBF11E0A0E0B1E0E8EAFBE002C0E2
S113008005900D92AA34B107D9F721E0AAE4B1E0B2
S113009001C01D92A437B207E1F70E9425050C9414
S11300A0D2050C940000CF93DF93CDB7DEB76997E8
S11300B00FB6F894DEBF0FBECDBF8DE0E0E0F1E0F7
S11300C0DE01119601900D928A95E1F78CE0EDE046
S11300D0F1E0DE011E9601900D928A95E1F7809180
S11300E0720190917301019709F060C080916A01D7
S11300F090916B01019791F110927A0081E090E068
S113010090936B0180936A011092690110926801C7
S1130110A0E0B0E0E0ECF0E09E012F5F3F4F46EC42
S113012050E001C0DC01808185FFFDCFA20FB31F29
S11301308C91DA018C938091680190916901019608
S11301409093690180936801D9010D900020E9F72B
S11301501197A21BB30BA817B90720F780915E0172
S113016090E0C09744E6489F9001499F300D1124C8
S113017080915F0190E0C097AC01440F551F880F38
S1130180991F880F991F880F991F840F951F280F97
S1130190391F8091610190E0C097820F931F8739C6
S11301A0910524F490935D0180935C018091720128
S11301B090917301892BC9F580916A0190916B012B
S11301C0029799F183E880937A0082E090E090931B
S11301D06B0180936A011092690110926801A0E09A
S11301E0B0E0E0ECF0E09E01225F3F4F46EC50E0CF
S11301F001C0DC01808185FFFDCFA20FB31F8C916C
S1130200DA018C9380916801909169010196909331
S1130210690180936801D9010D900020E9F71197D5
S1130220A21BB30BA817B90720F769960FB6F89469
S1130230DEBF0FBECDBFDF91CF9108954F9909C0A6
S11302402FEF80E792E0215080409040E1F700C01A
S1130250000089B18095881F8827881F089589B177
S113026086FB882780F908951F920F920FB60F928C
S113027011242F938F939F93EF93FF932091C600A4
S1130280209371012F3439F481E090E090935B0165
S113029080935A0107C0243229F41092510110921C
S11302A0500111C080ED820F8A3068F480915001B2
S11302B090915101FC01E25AFE4F208301969093E4
S11302C0510180935001FF91EF919F918F912F9154
S11302D00F900FBE0F901F9018951F920F920FB69C
S11302E00F9211248F939F9328988FE891E00197A0
S11302F0F1F700C00000299A9F918F910F900FBED3
S11303000F901F9018951F920F920FB60F92112401
S11303108F939F9329988FE891E00197F1F700C09C
S11303200000289A9F918F910F900FBE0F901F90FD
S113033018951F920F920FB60F9211248F939F93CB
S1130340809178009091790090935901809358019D
S11303509F918F910F900FBE0F901F9018951F9231
S11303600F920FB60F9211242F933F934F935F93E5
S11303706F937F938F939F93AF93BF9380917201F9
S113038090917301892B91F4209158013091590176
S113039044E6429FC001439F900D11246FEF73E028
S11303A00E94AA0570935D0160935C0120915C0139
S11303B030915D0147EC429FC001439F900D112491
S11303C064E670E00E94AA0568BDBF91AF919F9159
S11303D08F917F916F915F914F913F912F910F90EA
S11303E00FBE0F901F9018958EBD0DB407FEFDCF64
S11303F0089515B885E08A95F1F700008AE090E049
S113040090935701809356010E94F40185E08A95E8
S1130410F1F70000109257011092560180E090E02D
S11304200E94F40184E085B985E08A95F1F7000023
S113043015B885E08A95F1F7000089E090E0909383
S11304405701809356010E94F40185E08A95F1F7E3
S113045000008FEF90E090935701809356010E9423
S1130460F40184E085B985E08A95F1F7000015B8B8
S113047085E08A95F1F700008BE090E090935701B6
S1130480809356010E94F40185E08A95F1F70000FB
S113049082E090E090935701809356010E94F4010A
S11304A084E085B985E08A95F1F7000015B885E008
S11304B08A95F1F700008CE090E0909357018093C7
S11304C056010E94F40185E08A95F1F7000081E06D
S11304D090E090935701809356010E94F40184E0C8
S11304E085B985E08A95F1F7000015B885E08A950D
S11304F0F1F700008FE090E090935701809356014C
S11305000E94F40185E08A95F1F7000010925701EA
S11305101092560180E090E00E94F40184E085B9D5
S113052085E08A95F1F7000015B885E08A95F1F722
S1130530000081E090E090935701809356010E945F
S1130540F40185E08A95F1F700008FEF90E0909335
S11305505701809356010E94F40184E085B985E037
S11305608A95F1F7000015B885E08A95F1F7000047
S113057082E090E090935701809356010E94F40129
S113058085E08A95F1F700008FEF90E09093570192
S1130590809356010E94F40184E085B985E08A9530
S11305A0F1F7000015B885E08A95F1F7000083E0C3
S11305B090E090935701809356010E94F40185E0E6
S11305C08A95F1F700008FEF90E0909357018093A4
S11305D056010E94F40184E085B985E08A95F1F71B
S11305E000000895CF92DF92EF92FF920F931F9332
S11305F0CF93DF93CDB7DEB761970FB6F894DEBF24
S11306000FBECDBF88E0E9E1F1E0DE011196019073
S11306100D928A95E1F789E0E1E2F1E0DE011996B5
S113062001900D928A95E1F78091520190915301C6
S113063001969093530180935201823091052CF0DE
S1130640109253011092520138C0019781F5109213
S113065069011092680180E090E000EC10E09E01D6
S11306602F5F3F4F79010F2EF6ECCF2ED12CF02DBA
S1130670D8012C9125FFFCCFF701E80FF91F8081E9
S1130680F60180830E94F9018091680190916901CB
S113069001969093690180936801F701019000200D
S11306A0E9F73197EE19FF09E817F90708F7809180
S11306B0520190915301892B51F5109269011092C6
S11306C06801A0E0B0E0E0ECF0E09E01275F3F4F5E
S11306D046EC50E001C0DC01808185FFFDCFA20F14
S11306E0B31F8C91DA018C93809168019091690118
S11306F001969093690180936801D9010D900020BF
S1130700E9F71197A21BB30BA817B90720F7619655
S11307100FB6F894DEBF0FBECDBFDF91CF911F910E
S11307200F91FF90EF90DF90CF900895CF93DF93D8
S1130730CDB7DEB76F970FB6F894DEBF0FBECDBF4F
S11307408EE0EAE2F1E0DE01119601900D928A95C5
S1130750E1F781E1E8E3F1E0DE011F9601900D92FB
S11307608A95E1F71092690110926801A0E0B0E067
S1130770E0ECF0E09E012F5F3F4F46EC50E001C0FB
S1130780DC01808185FFFDCFA20FB31F8C91DA01BC
S11307908C9380916801909169010196909369010D
S11307A080936801D9010D900020E9F71197A21BED
S11307B0B30BA817B90720F781E090E090934F019D
S11307C080934E0115B8B5E0BA95F1F7000083E0C7
S11307D090E090935701809356010E94F40185E0C4
S11307E08A95F1F7000080914E0190914F0190930A
S11307F05701809356010E94F40184E085B9A5E075
S1130800AA95F1F7000080914E01805D8093C600A7
S1130810E0ECF0E0808185FFFDCF82E38093650109
S113082085E090E090934D0180934C0115B8B5E0BC
S1130830BA95F1F7000082E090E09093570180931D
S113084056010E94F40185E08A95F1F70000809139
S11308504C0190914D0180519F4F9093570180938B
S113086056010E94F40184E085B9A5E0AA95F1F748
S1130870000080914C01805D8093C600E0ECF0E0C4
S1130880808185FFFDCF8CE28093C600E0ECF0E030
S1130890808185FFFDCF809165019DEC899F912D1D
S11308A01124969596959695990F292F220F220F2C
S11308B0920F891B90E090934B0180934A0115B8E5
S11308C0B5E0BA95F1F7000081E090E0909357010C
S11308D0809356010E94F40185E08A95F1F70000A7
S11308E080914A0190914B01909357018093560156
S11308F00E94F40184E085B9A5E0AA95F1F700000F
S113090080914A01805D8093C600E0ECF0E0808134
S113091085FFFDCF8AE08093C600E0ECF0E08081A3
S113092085FFFDCF1092690110926801A0E0B0E04C
S1130930E0ECF0E09E01215F3F4F46EC50E001C047
S1130940DC01808185FFFDCFA20FB31F8C91DA01FA
S11309508C9380916801909169010196909369014B
S113096080936801D9010D900020E9F71197A21B2B
S1130970B30BA817B90720F780915C0190915D0132
S113098064E670E00E94AA0560934E0170934F01E3
S1130990605D6093C600E0ECF0E0808185FFFDCFF0
S11309A080915C0190915D0164E670E00E94AA056B
S11309B0809365012DEC829F212D11242695269587
S11309C02695822F90E090934D0180934C01205DF9
S11309D02093C600E0ECF0E0808185FFFDCF8CE23F
S11309E08093C600E0ECF0E0808185FFFDCF80912C
S11309F065012DEC829F212D11242695269526959F
S1130A00220F922F990F990F290F821B282F90E004
S1130A1090934B0180934A01205D2093C600E0EC43
S1130A20F0E0808185FFFDCF8AE08093C600E0EC92
S1130A30F0E0808185FFFDCF6F960FB6F894DEBF9E
S1130A400FBECDBFDF91CF910895559A84B18F62C7
S1130A5084B98BB18C6C8BB92A9A21E024BD8AE0CD
S1130A6085BD87EC87BD84E688BD83E08DBB8BE0C4
S1130A70809369001092800084E08093810088E96B
S1130A8096E7909385008093840020936F001092E2
S1130A90C00087E690E09093C5008093C40086E090
S1130AA08093C20098E99093C10090E490937C00F5
S1130AB09BEA90937A0080937B0081E58CBD0E9431
S1130AC0F901789410E2C1E0D0E00E942F01811175
S1130AD004C010927301109272010E942F018130A0
S1130AE029F4D0937301C093720115C080917201EF
S1130AF090917301892B49F40E941E01813029F4DD
S1130B0084B5812784BD0E94F20280917201909184
S1130B107301019779F480915A0190915B010197D7
S1130B2049F484B5812784BD10925B0110925A0167
S1130B300E94F2028CE691E00E9453000E94960308
S1130B402FE788E391E0215080409040E1F700C016
S1130B500000BBCF97FB072E16F4009407D077FD57
S1130B6009D00E94BE0507FC05D03EF490958195FE
S1130B709F4F0895709561957F4F0895AA1BBB1BE5
S1130B8051E107C0AA1FBB1FA617B70710F0A61B89
S1130B90B70B881F991F5A95A9F780959095BC01AA
S10B0BA0CD010895F894FFCF84
S1130BA84D6F646F2052656D6F746F0A004D6F64EA
S1130BB86F204C6F63616C0A0050574D206F6E0AAA
S1130BC80050574D206F66660A0054656E73696F4E
S1130BD86E205265616C3A0054656E73696F6E20BD
S10D0BE8446573656164613A00001E
S9030000FC
